:100000000C9453000C947B000C947B000C947B00AC
:100010000C947B000C947B000C947B000C947B0074
:100020000C947B000C947B000C947B000C947B0064
:100030000C947B000C947B000C947B000C947B0054
:100040000C949F020C947B000C946D020C9447025C
:100050000C947B000C947B000C947B000C947B0034
:100060000C947B000C947B0000000000250028000D
:100070002B0000000000240027002A0004040404D0
:100080000404040402020202020203030303030342
:10009000010204081020408001020408102001021F
:1000A00004081020E90211241FBECFEFD8E0DEBF04
:1000B000CDBF22E0ACE3B1E001C01D92A832B2078F
:1000C000E1F711E0A0E0B1E0E4E1F9E002C0059061
:1000D0000D92AC33B107D9F710E0C3E5D0E004C00E
:1000E0002197FE010E948204C235D107C9F70E9400
:1000F00028030C9488040C940000E5E4F1E0A08946
:10010000B18982E08C93A485B5851C92A685B785BC
:100110008FEC8C93108EA489B58986E08C93A2898C
:10012000B3898C9180618C93A289B3898C9188600A
:100130008C93A289B3898C9180688C930288F3890F
:10014000E02D80818F7D80830895CF92DF92EF92A2
:10015000FF920F931F932FB7F894C0904101D09056
:100160004201E0904301F09044012FBF6C0D7D1DD2
:100170008E1D9F1D4FB7F8940091410110914201CF
:1001800020914301309144014FBF0C151D052E05F0
:100190003F0528F0601771078207930758F71F91F2
:1001A0000F91FF90EF90DF90CF900895AF92BF92A4
:1001B000CF92DF92EF92FF920F931F93CF93DF9333
:1001C0006C017B018B01040F151FEB015E01AE1862
:1001D000BF08C017D10759F06991D601ED91FC9184
:1001E0000190F081E02DC6010995892B79F7C501B1
:1001F000DF91CF911F910F91FF90EF90DF90CF9003
:10020000BF90AF900895FC01538D448D252F30E0B1
:10021000842F90E0821B930B541710F0CF96089513
:1002200001970895FC01918D828D981761F0A28D40
:10023000AE0FBF2FB11D5D968C91928D9F5F9F7306
:10024000928F90E008958FEF9FEF0895FC01918DBC
:10025000828D981731F0828DE80FF11D858D90E029
:1002600008958FEF9FEF0895FC01918D228D892FC6
:1002700090E0805C9F4F821B91098F7399270895AE
:1002800085E491E00E94340121E0892B09F420E00B
:10029000822F089580E090E0892B29F00E94400190
:1002A00081110C9400000895FC01A48DA80FB92FB2
:1002B000B11DA35ABF4F2C91848D90E001968F738E
:1002C0009927848FA689B7892C93A089B1898C91AD
:1002D000837080648C93938D848D981306C00288FC
:1002E000F389E02D80818F7D80830895EF92FF92C6
:1002F0000F931F93CF93DF93EC0181E0888F9B8D49
:100300008C8D98131AC0E889F989808185FF15C002
:100310009FB7F894EE89FF896083E889F989808125
:100320008370806480839FBF81E090E0DF91CF91F4
:100330001F910F91FF90EF900895F62E0B8D10E016
:100340000F5F1F4F0F731127E02E8C8D8E110CC085
:100350000FB607FCFACFE889F989808185FFF5CFD0
:10036000CE010E945401F1CFEB8DEC0FFD2FF11D5A
:10037000E35AFF4FF0829FB7F8940B8FEA89FB890D
:1003800080818062CFCFCF93DF93EC01888D88236B
:10039000B9F0AA89BB89E889F9898C9185FD03C0E8
:1003A000808186FD0DC00FB607FCF7CF8C9185FFCD
:1003B000F2CF808185FFEDCFCE010E945401E9CFBD
:1003C000DF91CF9108953FB7F89480913D019091CE
:1003D0003E01A0913F01B091400126B5A89B05C008
:1003E0002F3F19F00196A11DB11D3FBFBA2FA92FB4
:1003F000982F8827BC01CD01620F711D811D911DB1
:1004000042E0660F771F881F991F4A95D1F708951C
:100410008F929F92AF92BF92CF92DF92EF92FF9214
:100420004B015C010E94E3016B017C010E94E3012E
:100430006C197D098E099F09683E734081059105FD
:10044000A8F321E0821A9108A108B10888EEC80E2D
:1004500083E0D81EE11CF11C81149104A104B104B5
:1004600029F7FF90EF90DF90CF90BF90AF909F90D3
:100470008F900895FC0101900020E9F73197AF01BA
:10048000481B590BBC0185E491E00C94D6001F92E7
:100490000F920FB60F9211242F933F934F935F93B8
:1004A0006F937F938F939F93AF93BF93EF93FF933C
:1004B00085E491E00E945401FF91EF91BF91AF91CB
:1004C0009F918F917F916F915F914F913F912F916C
:1004D0000F900FBE0F901F9018951F920F920FB69E
:1004E0000F9211242F938F939F93EF93FF93E0919B
:1004F0005501F09156018081E0915B01F0915C0122
:1005000082FD1BC0908180915E018F5F8F7320916F
:100510005F01821741F0E0915E01F0E0EB5BFE4F7E
:10052000958F80935E01FF91EF919F918F912F9115
:100530000F900FBE0F901F9018958081F4CF1F92DF
:100540000F920FB60F9211242F933F938F939F9387
:10055000AF93BF938091410190914201A0914301DB
:10056000B091440130913C0123E0230F2D3758F521
:100570000196A11DB11D20933C01809341019093F0
:100580004201A0934301B093440180913D019091B9
:100590003E01A0913F01B09140010196A11DB11D06
:1005A00080933D0190933E01A0933F01B0934001A1
:1005B000BF91AF919F918F913F912F910F900FBE5F
:1005C0000F901F90189526E8230F0296A11DB11DCC
:1005D000D2CFE5E4F1E01382128288EE93E0A0E04E
:1005E000B0E084839583A683B78384E091E0918310
:1005F000808385EC90E09587848784EC90E09787F2
:10060000868780EC90E0918B808B81EC90E0938BDF
:10061000828B82EC90E0958B848B86EC90E0978BBC
:10062000868B118E128E138E148EE2EEF1E01682FE
:1006300017821086118612861386148615861686F2
:100640001786108A118A128A138A148A158A0895C5
:10065000CF93DF93CDB7DEB7A1970FB6F894DEBF87
:100660000FBECDBF789484B5826084BD84B58160AF
:1006700084BD85B5826085BD85B5816085BD80916D
:100680006E00816080936E001092810080918100E5
:1006900082608093810080918100816080938100DD
:1006A000809180008160809380008091B10084609F
:1006B0008093B1008091B00081608093B000809100
:1006C0007A00846080937A0080917A0082608093BF
:1006D0007A0080917A00816080937A0080917A001C
:1006E000806880937A001092C100109224021092C8
:1006F000250210922602109227021092E401109215
:10070000E5011092E6011092E70168EB7BE080E0E2
:1007100090E00E94A50068EE73E080E090E00E9407
:1007200008020E947D002FB7F894809141019091BA
:100730004201A0914301B09144012FBF8093E40195
:100740009093E501A093E601B093E70182E191E087
:100750000E943A026AE070E080E090E00E94A5000A
:1007600081E08093F8012FB7F89480914101909136
:100770004201A0914301B09144012FBF8093E40155
:100780009093E501A093E601B093E70183E291E045
:100790000E943A02E2E9F0E02491EEE7F0E0849171
:1007A000882399F090E0880F991FFC01EE58FF4FC5
:1007B000A591B491FC01E859FF4F859194918FB7B1
:1007C000F894EC91E22BEC938FBF0E947D0080E4C3
:1007D000D82E9AE0892E912CA12CB12C20E0E22E6B
:1007E00020E0F22E8AE291E00E943A02D0927C0050
:1007F00080917A00806480937A0080917A0086FDEF
:10080000FCCF9091780080917900892798278927DB
:100810002C01092E000C6608770897FF3BC06DE29B
:1008200085E491E00E94760122273327A90124194B
:1008300035094609570919A28E010F5D1F4FCA01DC
:10084000B901A50194010E946004605DF801629302
:100850008F01211531054105510589F70115110554
:1008600019F0C8010E943A0288E391E00E943A021E
:1008700064EF71E080E090E00E940802E114F1046E
:1008800009F4B0CF0E944001882309F4ABCF0E9445
:100890000000A8CFA301920119A28E010F5D1F4F86
:1008A000CA01B901A50194010E946004605DF801CC
:1008B00062938F01211531054105510589F7CECF8E
:1008C000A1E21A2EAA1BBB1BFD010DC0AA1FBB1F54
:1008D000EE1FFF1FA217B307E407F50720F0A21BC6
:1008E000B30BE40BF50B661F771F881F991F1A9433
:1008F00069F760957095809590959B01AC01BD015D
:10090000CF010895EE0FFF1F0590F491E02D09949B
:04091000F894FFCF89
:10091400000000007601D6000301C3013401120176
:100924002601564D4450565F317C315F564D44503C
:10093400560A00564D4450525F0047617A20646560
:0C094400C49F657269203A000D0A000093
:00000001FF
